{
  "_format": "hh-sol-artifact-1",
  "contractName": "BlockifyPortal",
  "sourceName": "contracts/BlockifyPortal.sol",
  "abi": [
    {
      "inputs": [],
      "stateMutability": "payable",
      "type": "constructor"
    },
    {
      "anonymous": false,
      "inputs": [
        {
          "indexed": true,
          "internalType": "address",
          "name": "from",
          "type": "address"
        },
        {
          "indexed": false,
          "internalType": "uint256",
          "name": "timestamp",
          "type": "uint256"
        },
        {
          "indexed": false,
          "internalType": "string",
          "name": "message",
          "type": "string"
        }
      ],
      "name": "NewRecommendation",
      "type": "event"
    },
    {
      "inputs": [],
      "name": "getAllRecommendations",
      "outputs": [
        {
          "components": [
            {
              "internalType": "address",
              "name": "recommender",
              "type": "address"
            },
            {
              "internalType": "string",
              "name": "message",
              "type": "string"
            },
            {
              "internalType": "uint256",
              "name": "timestamp",
              "type": "uint256"
            }
          ],
          "internalType": "struct BlockifyPortal.Recommendation[]",
          "name": "",
          "type": "tuple[]"
        }
      ],
      "stateMutability": "view",
      "type": "function"
    },
    {
      "inputs": [],
      "name": "getTotalRecommendations",
      "outputs": [
        {
          "internalType": "uint256",
          "name": "",
          "type": "uint256"
        }
      ],
      "stateMutability": "view",
      "type": "function"
    },
    {
      "inputs": [
        {
          "internalType": "address",
          "name": "",
          "type": "address"
        }
      ],
      "name": "lastRecommendedAt",
      "outputs": [
        {
          "internalType": "uint256",
          "name": "",
          "type": "uint256"
        }
      ],
      "stateMutability": "view",
      "type": "function"
    },
    {
      "inputs": [
        {
          "internalType": "string",
          "name": "_message",
          "type": "string"
        }
      ],
      "name": "recommend",
      "outputs": [],
      "stateMutability": "nonpayable",
      "type": "function"
    }
  ],
  "bytecode": "0x608060405262000033604051806060016040528060228152602001620015f3602291396200005b60201b620006001760201c565b6064444262000043919062000160565b6200004f9190620001ca565b600181905550620002c0565b620000fb816040516024016200007291906200029c565b6040516020818303038152906040527f41304fac000000000000000000000000000000000000000000000000000000007bffffffffffffffffffffffffffffffffffffffffffffffffffffffff19166020820180517bffffffffffffffffffffffffffffffffffffffffffffffffffffffff8381831617835250505050620000fe60201b60201c565b50565b60008151905060006a636f6e736f6c652e6c6f679050602083016000808483855afa5050505050565b6000819050919050565b7f4e487b7100000000000000000000000000000000000000000000000000000000600052601160045260246000fd5b60006200016d8262000127565b91506200017a8362000127565b925082820190508082111562000195576200019462000131565b5b92915050565b7f4e487b7100000000000000000000000000000000000000000000000000000000600052601260045260246000fd5b6000620001d78262000127565b9150620001e48362000127565b925082620001f757620001f66200019b565b5b828206905092915050565b600081519050919050565b600082825260208201905092915050565b60005b838110156200023e57808201518184015260208101905062000221565b60008484015250505050565b6000601f19601f8301169050919050565b6000620002688262000202565b6200027481856200020d565b9350620002868185602086016200021e565b62000291816200024a565b840191505092915050565b60006020820190508181036000830152620002b881846200025b565b905092915050565b61132380620002d06000396000f3fe608060405234801561001057600080fd5b506004361061004c5760003560e01c80631a16c159146100515780636bfd09a01461006f5780637dfdf5141461009f578063d886ad3d146100bb575b600080fd5b6100596100d9565b60405161006691906109f9565b60405180910390f35b61008960048036038101906100849190610a5b565b61022a565b6040516100969190610a97565b60405180910390f35b6100b960048036038101906100b49190610be7565b610242565b005b6100c36105f7565b6040516100d09190610a97565b60405180910390f35b60606003805480602002602001604051908101604052809291908181526020016000905b8282101561022157838290600052602060002090600302016040518060600160405290816000820160009054906101000a900473ffffffffffffffffffffffffffffffffffffffff1673ffffffffffffffffffffffffffffffffffffffff1673ffffffffffffffffffffffffffffffffffffffff16815260200160018201805461018690610c5f565b80601f01602080910402602001604051908101604052809291908181526020018280546101b290610c5f565b80156101ff5780601f106101d4576101008083540402835291602001916101ff565b820191906000526020600020905b8154815290600101906020018083116101e257829003601f168201915b50505050508152602001600282015481525050815260200190600101906100fd565b50505050905090565b60026020528060005260406000206000915090505481565b42611518600260003373ffffffffffffffffffffffffffffffffffffffff1673ffffffffffffffffffffffffffffffffffffffff168152602001908152602001600020546102909190610cbf565b106102d0576040517f08c379a00000000000000000000000000000000000000000000000000000000081526004016102c790610d76565b60405180910390fd5b42600260003373ffffffffffffffffffffffffffffffffffffffff1673ffffffffffffffffffffffffffffffffffffffff1681526020019081526020016000208190555060016000808282546103269190610cbf565b9250508190555061036d6040518060400160405280601d81526020017f2573207265636f6d6d656e64656420772f206d657373616765202573210000008152503383610699565b600360405180606001604052803373ffffffffffffffffffffffffffffffffffffffff16815260200183815260200142815250908060018154018082558091505060019003906000526020600020906003020160009091909190915060008201518160000160006101000a81548173ffffffffffffffffffffffffffffffffffffffff021916908373ffffffffffffffffffffffffffffffffffffffff16021790555060208201518160010190816104259190610f42565b50604082015181600201555050606460015442446104439190610cbf565b61044d9190610cbf565b6104579190611043565b6001819055506014600154116105a4576104a66040518060400160405280600781526020017f257320776f6e210000000000000000000000000000000000000000000000000081525033610738565b60006618838370f340009050478111156104f5576040517f08c379a00000000000000000000000000000000000000000000000000000000081526004016104ec906110e6565b60405180910390fd5b60003373ffffffffffffffffffffffffffffffffffffffff168260405161051b90611137565b60006040518083038185875af1925050503d8060008114610558576040519150601f19603f3d011682016040523d82523d6000602084013e61055d565b606091505b50509050806105a1576040517f08c379a0000000000000000000000000000000000000000000000000000000008152600401610598906111be565b60405180910390fd5b50505b3373ffffffffffffffffffffffffffffffffffffffff167fd3efbb8c6489c5509717c60f6311a90e0d700f0e5d285fa6193662c14fd1da4642836040516105ec929190611217565b60405180910390a250565b60008054905090565b610696816040516024016106149190611247565b6040516020818303038152906040527f41304fac000000000000000000000000000000000000000000000000000000007bffffffffffffffffffffffffffffffffffffffffffffffffffffffff19166020820180517bffffffffffffffffffffffffffffffffffffffffffffffffffffffff83818316178352505050506107d4565b50565b6107338383836040516024016106b193929190611278565b6040516020818303038152906040527fe0e9ad4f000000000000000000000000000000000000000000000000000000007bffffffffffffffffffffffffffffffffffffffffffffffffffffffff19166020820180517bffffffffffffffffffffffffffffffffffffffffffffffffffffffff83818316178352505050506107d4565b505050565b6107d0828260405160240161074e9291906112bd565b6040516020818303038152906040527f319af333000000000000000000000000000000000000000000000000000000007bffffffffffffffffffffffffffffffffffffffffffffffffffffffff19166020820180517bffffffffffffffffffffffffffffffffffffffffffffffffffffffff83818316178352505050506107d4565b5050565b60008151905060006a636f6e736f6c652e6c6f679050602083016000808483855afa5050505050565b600081519050919050565b600082825260208201905092915050565b6000819050602082019050919050565b600073ffffffffffffffffffffffffffffffffffffffff82169050919050565b600061085482610829565b9050919050565b61086481610849565b82525050565b600081519050919050565b600082825260208201905092915050565b60005b838110156108a4578082015181840152602081019050610889565b60008484015250505050565b6000601f19601f8301169050919050565b60006108cc8261086a565b6108d68185610875565b93506108e6818560208601610886565b6108ef816108b0565b840191505092915050565b6000819050919050565b61090d816108fa565b82525050565b600060608301600083015161092b600086018261085b565b506020830151848203602086015261094382826108c1565b91505060408301516109586040860182610904565b508091505092915050565b600061096f8383610913565b905092915050565b6000602082019050919050565b600061098f826107fd565b6109998185610808565b9350836020820285016109ab85610819565b8060005b858110156109e757848403895281516109c88582610963565b94506109d383610977565b925060208a019950506001810190506109af565b50829750879550505050505092915050565b60006020820190508181036000830152610a138184610984565b905092915050565b6000604051905090565b600080fd5b600080fd5b610a3881610849565b8114610a4357600080fd5b50565b600081359050610a5581610a2f565b92915050565b600060208284031215610a7157610a70610a25565b5b6000610a7f84828501610a46565b91505092915050565b610a91816108fa565b82525050565b6000602082019050610aac6000830184610a88565b92915050565b600080fd5b600080fd5b7f4e487b7100000000000000000000000000000000000000000000000000000000600052604160045260246000fd5b610af4826108b0565b810181811067ffffffffffffffff82111715610b1357610b12610abc565b5b80604052505050565b6000610b26610a1b565b9050610b328282610aeb565b919050565b600067ffffffffffffffff821115610b5257610b51610abc565b5b610b5b826108b0565b9050602081019050919050565b82818337600083830152505050565b6000610b8a610b8584610b37565b610b1c565b905082815260208101848484011115610ba657610ba5610ab7565b5b610bb1848285610b68565b509392505050565b600082601f830112610bce57610bcd610ab2565b5b8135610bde848260208601610b77565b91505092915050565b600060208284031215610bfd57610bfc610a25565b5b600082013567ffffffffffffffff811115610c1b57610c1a610a2a565b5b610c2784828501610bb9565b91505092915050565b7f4e487b7100000000000000000000000000000000000000000000000000000000600052602260045260246000fd5b60006002820490506001821680610c7757607f821691505b602082108103610c8a57610c89610c30565b5b50919050565b7f4e487b7100000000000000000000000000000000000000000000000000000000600052601160045260246000fd5b6000610cca826108fa565b9150610cd5836108fa565b9250828201905080821115610ced57610cec610c90565b5b92915050565b600082825260208201905092915050565b7f506c65617365205761697420312e3520686f757273206265666f72652072656360008201527f6f6d6d656e64696e6720616761696e2e00000000000000000000000000000000602082015250565b6000610d60603083610cf3565b9150610d6b82610d04565b604082019050919050565b60006020820190508181036000830152610d8f81610d53565b9050919050565b60008190508160005260206000209050919050565b60006020601f8301049050919050565b600082821b905092915050565b600060088302610df87fffffffffffffffffffffffffffffffffffffffffffffffffffffffffffffffff82610dbb565b610e028683610dbb565b95508019841693508086168417925050509392505050565b6000819050919050565b6000610e3f610e3a610e35846108fa565b610e1a565b6108fa565b9050919050565b6000819050919050565b610e5983610e24565b610e6d610e6582610e46565b848454610dc8565b825550505050565b600090565b610e82610e75565b610e8d818484610e50565b505050565b5b81811015610eb157610ea6600082610e7a565b600181019050610e93565b5050565b601f821115610ef657610ec781610d96565b610ed084610dab565b81016020851015610edf578190505b610ef3610eeb85610dab565b830182610e92565b50505b505050565b600082821c905092915050565b6000610f1960001984600802610efb565b1980831691505092915050565b6000610f328383610f08565b9150826002028217905092915050565b610f4b8261086a565b67ffffffffffffffff811115610f6457610f63610abc565b5b610f6e8254610c5f565b610f79828285610eb5565b600060209050601f831160018114610fac5760008415610f9a578287015190505b610fa48582610f26565b86555061100c565b601f198416610fba86610d96565b60005b82811015610fe257848901518255600182019150602085019450602081019050610fbd565b86831015610fff5784890151610ffb601f891682610f08565b8355505b6001600288020188555050505b505050505050565b7f4e487b7100000000000000000000000000000000000000000000000000000000600052601260045260246000fd5b600061104e826108fa565b9150611059836108fa565b92508261106957611068611014565b5b828206905092915050565b7f547279696e6720746f207769746864726177206d6f7265206d6f6e657920746860008201527f616e2074686520636f6e7472616374206861732e000000000000000000000000602082015250565b60006110d0603483610cf3565b91506110db82611074565b604082019050919050565b600060208201905081810360008301526110ff816110c3565b9050919050565b600081905092915050565b50565b6000611121600083611106565b915061112c82611111565b600082019050919050565b600061114282611114565b9150819050919050565b7f4661696c656420746f207769746864726177206d6f6e65792066726f6d20636f60008201527f6e74726163742e00000000000000000000000000000000000000000000000000602082015250565b60006111a8602783610cf3565b91506111b38261114c565b604082019050919050565b600060208201905081810360008301526111d78161119b565b9050919050565b60006111e98261086a565b6111f38185610cf3565b9350611203818560208601610886565b61120c816108b0565b840191505092915050565b600060408201905061122c6000830185610a88565b818103602083015261123e81846111de565b90509392505050565b6000602082019050818103600083015261126181846111de565b905092915050565b61127281610849565b82525050565b6000606082019050818103600083015261129281866111de565b90506112a16020830185611269565b81810360408301526112b381846111de565b9050949350505050565b600060408201905081810360008301526112d781856111de565b90506112e66020830184611269565b939250505056fea2646970667358221220ed441cce6854382714056e90ae3962f49c306c7eee1ed39eba3c79b34542ddf464736f6c63430008110033596f20796f2c204920616d2074686520736d61727465737420636f6e74726163742e",
  "linkReferences": {},
  "deployedLinkReferences": {}
}